:020000040001F9
:10C00000F03B00208DC4010095C4010097C40100DD
:10C0100099C401009BC401009DC401000000000000
:10C020000000000000000000000000009FC40100AC
:10C03000A1C4010000000000A3C40100A5C40100C8
:10C04000A7C40100A7C4010081C90100A7C4010061
:10C05000A7C40100A7C401001DC50100A7C40100B9
:10C06000A7C40100A7C40100A7C40100A7C4010020
:10C07000A7C40100A7C40100A7C40100A7C4010010
:10C08000A7C40100C9C60100A7C40100A7C40100DC
:10C09000EDC60100A7C40100F1C60100A7C401005C
:10C0A000A7C40100A7C40100A7C40100A7C40100E0
:10C0B000A7C40100A7C401000000000000000000A8
:10C0C000A7C40100A7C40100A7C40100A7C40100C0
:10C0D000A7C40100A7C40100A7C40100000000001C
:10C0E0000000000000000000000000000000000050
:10C0F0000000000000000000000000000000000040
:10C10000000000000000000000000000000000002F
:10C11000000000000000000000000000000000001F
:10C40000DFF80CD000F078F8004800472DD5010087
:10C41000F03B0020401E00BF00BF00BF00BF00BFB8
:10C4200000BF00BF00BF00BF00BF00BF00BF00BF14
:10C4300000BF00BF00BF00BF00BF00BF00BF00BF04
:10C4400000BF00BF00BF00BF00BF00BF00BF00BFF4
:10C4500000BF00BF00BF00BF00BF00BF00BF00BFE4
:10C4600000BF00BF00BF00BF00BF00BF00BF00BFD4
:10C4700000BF00BF00BF00BF00BF00BF00BF00BFC4
:10C4800000BF00BF00BFC5D170470000064880470D
:10C4900006480047FEE7FEE7FEE7FEE7FEE7FEE7A9
:10C4A000FEE7FEE7FEE7FEE715C7010001C4010055
:10C4B00040EA01039B0703D009E008C9121F08C026
:10C4C000042AFAD203E011F8013B00F8013B521EA6
:10C4D000F9D27047D2B201E000F8012B491EFBD21D
:10C4E00070470022F6E710B513460A46044619467F
:10C4F000FFF7F0FF204610BD064C074D06E0E06850
:10C5000040F0010394E8070098471034AC42F6D39A
:10C51000FFF77AFF28DE010048DE01002DE9FC5F0D
:10C520000025DFF83491A8464FF4807601242F4689
:10C53000304601F0D7F838B1D9F80403204203D0CF
:10C54000304601F0C5F82543361D64007F1CB6B2A5
:10C55000082FEDD34FF4BE74204601F0C3F838B174
:10C56000204601F0B5F83D4845F00045D0F8008080
:10C570003B4E15F0FF0F14D0012700242F420CD0A2
:10C5800009EB8401D1F81005D1F81015C0F304208F
:10C5900056F82420C1F3014190477F00641C082C09
:10C5A000ECD3002D56DA00200190401E4CE07019AB
:10C5B00010F8501F90F9000021F0C004401C38D042
:10C5C000012000FA04FA1AEA090F32D04FEA911B4F
:10C5D000204600F0C3FD56F82000009010B9BBF1D2
:10C5E000030F26D15146BBF1030F02D10198084336
:10C5F0000190A00000F1A040D0F800071AEA080F4F
:10C60000C0F3014002D0022802D012E0032810D16A
:10C61000BBF1030F07D102281AD00221204601F0F6
:10C6200049F87F1CFFB2009818B1009A594620467D
:10C6300090476D1C042DBAD3002F0BD0074800681B
:10C64000404507D080460198002781463D46AEE729
:10C650000321E3E7BDE8FC9F0060004010050050A7
:10C660006C1B002000F01F02012191404009800056
:10C6700000F1E020C0F88012704700F01F02012195
:10C6800091404009800000F1E020C0F8001170479F
:10C6900000F01F02012191404009800000F1E020DC
:10C6A000C0F8001270474907090E002806DA00F0AA
:10C6B0000F0000F1E02080F8141D704700F1E02029
:10C6C00080F800147047000007480021C0F84011AE
:10C6D000C0F84411C0F84811C0F84C11C0F800115E
:10C6E000C0F8041101F08AB90010014001F022B92C
:10C6F000074810B5406830B18047002807D0BDE832
:10C70000104000F099BABDE8104000F0E9BD10BD3E
:10C71000C018002070B58D480023021D0178101D3F
:10C720000124062907D115782D0704D10578C5F312
:10C730000315032D02D0062904D00FE0854E844D49
:10C7400075670EE015782D0708D10578C5F3031538
:10C75000032D06D0042D04D0052D02D0062909D0C2
:10C7600010E04FF08055D5F844527B4EC5F342356A
:10C77000356002E015782D0704D10578C5F303155F
:10C78000032D02D0062906D011E0744D2E6826F044
:10C7900080762E600EE015782D0708D10578C5F358
:10C7A0000315032D06D0042D04D0052D02D0062933
:10C7B0000AD011E04FF08045C5F80C31C5F81031B2
:10C7C000654D2D1F2B6002E015782D0704D10578EB
:10C7D000C5F30315032D02D0062905D00CE05E4AEF
:10C7E0000321643211600AE015782D0704D1057821
:10C7F000C5F30315032D02D006290DD06AE0584A6F
:10C8000005211160564978310C60554908310B609B
:10C810003F21121D116002E0117809075AD10078FA
:10C82000C0F30310052855D14E4800684E490860F2
:10C830004C48001D0068091D08604A48083000681F
:10C84000091D086047480C300068091D086045480C
:10C8500010300068091D0860424814300068091D46
:10C8600008604048183000683F49203108603D4862
:10C870001C300068091D08603A4820300068091D16
:10C880000860384824300068091D086035482830A1
:10C890000068091D086033482C300068091D0860D5
:10C8A0003048303000683049403108602D4834301D
:10C8B0000068091D08602B4838300068091D0860B1
:10C8C00028483C300068091D086026484030006850
:10C8D000091D086021487438016841F47001016045
:10C8E000BFF34F8FBFF36F8F4FF01021D1F80002CD
:10C8F000002803DBD1F80402002822DA1B4A146066
:10C900001B480468002CFCD01524C1F800420568BF
:10C91000002DFCD0C1F8044201680029FCD013604E
:10C9200001680029FCD0BFF34F8F0C48F038016834
:10C93000104A01F4E06111430160BFF34F8F00BF63
:10C94000FDE70E490C48086070BD0000E00F00F0E4
:10C950000DF0ADBA00C007403C050040FCED00E022
:10C96000105600400404001020C5004004E50140BA
:10C9700000E401400400FA050090D003D418002020
:10C980000348007F08B101F023B901F09DB8000011
:10C99000C41B002002E008C8121F08C1002AFAD1F7
:10C9A00070477047002001E001C1121F002AFBD12F
:10C9B00070472DE9FC5F0025168807461580406BFF
:10C9C00014468946A8464FF00C0A11234FF0020B7B
:10C9D00098B101784846032E48D380F800B02288E9
:10C9E000521C92B2228083542288521C92B222801E
:10C9F00009F802102088401C20803A6BDAB12088A8
:10CA0000494600F11205B54230D80B542088102356
:10CA1000401C80B220800B542088401C20800F20B6
:10CA20002388155C401ECD54238840B25B1C2380B4
:10CA30000028F5DA454697F82E0030B133462246F5
:10CA4000494600F085FC050011D197F82D0030B162
:10CA500032462146484600F0DFF9050007D1B87894
:10CA600020B32088C846001DB04202D95046BDE818
:10CA7000FC9F684679DF0028F9D12188032008F857
:10CA8000010020881921401C80B2208008F8001085
:10CA90002088401C80B2208000EB0801BDF8000017
:10CAA00001F002F90146208808442080F878B8B1E6
:10CAB000228897F90310D31C4846B342D6D800F811
:10CAC00002B022880123521C92B222808354228811
:10CAD000521C92B2228009F802102088401C20804B
:10CAE0007868B8B1218890F90020CB1C4846B34241
:10CAF000BCD800F801B021880A23491C89B22180E2
:10CB000043542188491C89B2218009F801202088DA
:10CB1000401C2080388950B1CDE900464B460622A2
:10CB2000022107F1080001F0F7F805009FD1388ACB
:10CB300050B1CDE900464B460722032107F1100012
:10CB400001F0EAF8050092D1388B50B1CDE90046EA
:10CB50004B461522142107F1180001F0DDF80500FD
:10CB600085D1386A30B133462246494600F054FB3D
:10CB70000500DBD1786A30B133462246494600F0E1
:10CB800019FD0500D2D197F82C0038B13346224662
:10CB90004946384600F050FE0500C7D1387838B114
:10CBA000334622464946384600F036FD0500BDD1E1
:10CBB00028465CE730B591B04C20ADF838001348FA
:10CBC00010901720ADF83C00042538216846FFF787
:10CBD00088FC00240EA88DF8004009908DF80350C1
:10CBE0002146684600F0E4F808B100F025F8182165
:10CBF0000748FFF776FC0648032101704460047281
:10CC00004FF448710182448211B030BD7018002089
:10CC1000E81A0020BFF34F8F05480168054A01F468
:10CC2000E06111430160BFF34F8F00BFFDE70000DB
:10CC30000CED00E00400FA050EB500210091CDE9ED
:10CC400001106A4644F20100FFF7E4FF0EBD000048
:10CC50002DE9F0478046994614460F4690074FF05D
:10CC6000000634D11C4D8CB300F054FD0320C5F8F0
:10CC70001490287004F11800002107EB4703AC6002
:10CC800004EBC102491C167056709770506000EB9F
:10CC9000C3000329F4DBEE606E70AE701420FFF762
:10CCA000E1FC06211420FFF7FEFC1420FFF7E5FC51
:10CCB0000A49C1F8008006211120FFF7F4FC07485B
:10CCC000001F006828610020BDE8F08701E0072010
:10CCD000FAE7AE60FBE70000A0180020081501404D
:10CCE0002DE9F843DFF870900D461746D9F8081083
:10CCF000044651B34CB3052D02D20720BDE8F8839A
:10CD0000606910B3607C012821D0002600F0D1FFBB
:10CD1000D9F80810804601EBC800694600F0E8FF2A
:10CD2000B8B1012100F8041B0C4910C0096880E863
:10CD3000E200D9F8081001EBC8009DF8001041701E
:10CD40001420FFF7A5FC0020D8E70820D6E72E46E0
:10CD5000DCE70420D2E70000A01800200415014001
:10CD6000F8B5124E0446B168E1B1DCB16069C8B1F2
:10CD70000027277400F09DFF0546B068694600EB68
:10CD8000C50000F0B5FF78B1022101704460B068C1
:10CD90009DF8001000EBC50041701420FFF778FCEF
:10CDA0003846F8BD0820F8BD0420F8BDA0180020C2
:10CDB000F0B50C4693B01F210726ADF80010ADF872
:10CDC0000410002750B1C17849070DD56A4602A961
:10CDD000FFF7EFFD002808D102AD02E00025ADF815
:10CDE00000706CB1E07810B1304613B0F0BD01AA0C
:10CDF0000AA92046FFF7DDFD0028F6D10AAA02E0C5
:10CE00000022ADF80470BDF80400C3B2BDF8000004
:10CE1000C1B2284672DFE8E77CB5054608880C46B3
:10CE20000930904201D90C207CBD684671DF002892
:10CE3000FAD121880820685420881B21401C80B228
:10CE4000208029542088401C80B220802844DDF8AE
:10CE500001100160BDF8051081802088801D80B21E
:10CE600020809DF8001001B1012129542088401C28
:10CE7000208000207CBD00002DE9F04707460024FB
:10CE8000244802E0641C042C41D250F82420BA4209
:10CE9000F8D1042C3BD21F48DFF87C901F4E0C3891
:10CEA000A9F1140841B301290FD002292FD104EBB5
:10CEB000440030444578002D29D0D8F810100029BE
:10CEC00025D02846BDE8F047084704EB4401755CCF
:10CED0000E44717861B1D8F804100F4A01EB81015A
:10CEE0004900133A8068FFF7FBFE08B988F8017023
:10CEF000B17809F80410DEE78068FFF731FF04EB32
:10CF00004401314419F804008D78A842D3D0BDE81B
:10CF1000F0870000F8DD01009C180020401B002075
:10CF2000044A01460020127AD20702D0084600F0D7
:10CF300003B87047881800202DE9F84F854EDFF8B8
:10CF400010A24FF4E01CF16807462CEA010C009196
:10CF5000002071680AF10404251D7F4B4FF4003254
:10CF60004FF4802B01EB810E8146182F16D2DFE89B
:10CF700007F00C17173A4E607083868F868FEAA0F1
:10CF8000A0A0A0A0CAD1D8E1EAEA009A4FF4F0111B
:10CF900091432160C5F8009086F80090BDE8F88FB5
:10CFA000C4F800C04846C5F80090DAF800C08CF418
:10CFB000F01C5FEA8C3C09D522602860022F02D168
:10CFC0004FF4E16008E04FF47A6005E02A602060E9
:10CFD000022F3CD04FF4C8706422B0FBF2F0414302
:10CFE000377000225EE0C4F800C04846C5F80090E3
:10CFF000DAF800C08CF4F01C5FEA8C3C04D52260A7
:10D0000028604FF44870E7E72A6020601FE0C4F80A
:10D0100000C04846C5F80090DAF800C08CF4F01C57
:10D020005FEA8C3C02D522602860CCE72A60206051
:10D03000D0E7C4F800C04846C5F80090DAF800C050
:10D040008CF4F01C5FEA8C3CDED522602860C8209E
:10D05000C2E7C4F800C04846C5F80090DAF800C03E
:10D060008CF4F01C5FEA8C3C02D52260286001E061
:10D070002A602060377014E0C4F800C04DE0DAF890
:10D0800000002BEA0002226000F48020286008E003
:10D09000DAF800002BEA0001216000F4802028600B
:10D0A000714600221868BDE8F84FFFF719BE2160ED
:10D0B0002EE098465868FFF753FED7F1110100D0D3
:10D0C00040B1F16801F4F0112160C5F80090C6F894
:10D0D0000C9063E74FF40022F26001290CD9C820BC
:10D0E00011FB00F16420B1FBF0F1706800224143B4
:10D0F000D8F80400FFF7F4FDF16801F4F01129609D
:10D10000C4F800904AE74FF4F0112160C5F8009090
:10D11000377043E74FF4E01121604946C5F80090AD
:10D1200006E04FF4D01121604946C5F800905A46F8
:10D130002A60BCE74FF4C01121604946C5F8009051
:10D140004FF4C022F4E74FF4F01129604946AEE7EE
:10D150000405005088180020ECDD01000249084455
:10D1600090F93000704700006C1B00202DE9F05F43
:10D170002648C168F1B3DFF898B00E688146DBF845
:10D1800000400769C078E11B21F07F45ED1CB0B974
:10D19000DFF880804FF48030C8F84403C8F80403F7
:10D1A0001120FFF75FFA1120FFF767FA4FF0010A2D
:10D1B000C8F800A02F20FFF72DF989F803A0B54289
:10D1C00000D23546124BE8193C3320F07F401860FE
:10D1D000DBF800105A46091B21F07F41001B20F0AC
:10D1E0007F40C91C81420FD9106818602F20FFF7BB
:10D1F00011F900E004E0BDE8F05F1120FFF748BA44
:10D20000BDE8F05F00F086BABDE8F09FA0180020EE
:10D2100004150140001001402DE9F0411788064631
:10D22000B81D14460D46984202D90C20BDE8F08185
:10D230003188072206290AD34FF4486C4FF6FF7352
:10D24000614501D9994202D17088062801D2104661
:10D25000ECE7604501D99842F9D1994203D0984250
:10D2600001D08142F3D80520E85520881221401CC6
:10D2700080B2208029542088401C80B2208041192F
:10D28000308800F011FD2188084480B220804119C7
:10D29000708800F009FD2188084420800020C5E73F
:10D2A0000E4910B54A788C780023A24212D0521C45
:10D2B000D2B24A70022A00D14B70084A4B78183219
:10D2C00052F8232002600869104420F07F40086172
:10D2D000012010BD0360002010BD0000A018002038
:10D2E000F8B51A4C207800282ED0206928B10026E5
:10D2F000E06820B1002526B110E00126F8E70125FD
:10D30000F9E7684652DF052803D020B1FFF794FC07
:10D3100004E0012602E021690098884785B9608809
:10D32000ADF800006946A06861DF052803D020B190
:10D33000FFF782FC04E0012502E0D4E902018847FE
:10D34000002EDED0002DD6D0F8BD0000C018002081
:10D3500030B51488E51C9D4201D90C2030BD022552
:10D360000D5513881C245B1C9BB21380CC5413886E
:10D370005B1C9BB21380012807D0022807D003282A
:10D3800007D0042807D0072030BD002004E001208A
:10D3900002E0CD5401E00320C8541088401C1080E6
:10D3A000002030BD2DE9F047DFF8ACA0DAF80C0022
:10D3B0009AF8004080469AF80460DAF80890DAF8A3
:10D3C00010703AE009EBC4052A7833E002EB420121
:10D3D0006B68521C03EBC101AB78D2B2934200D10F
:10D3E00000220B78022B02D0032B23D11FE0D1F8AF
:10D3F00004C00346014603E0614503D00B46C969FA
:10D40000C1B1F9E7B1B18B4205D1C06918B9134F69
:10D410000126BE600027D1F800C0C969D96149B1B1
:10D420000B6863440B6005E00174C06900E00021F3
:10D430000028F9D169789142C8D1641EE4B2C1D202
:10D44000CAE903078AF80460404502D00120BDE81C
:10D45000F0870020FBE70000A0180020001001402A
:10D460002DE9F04705462F48002680460778D0F87A
:10D470000C904BE0D8F8080000EBC70440E002D065
:10D480002846ED691EE02078616800EB4002401CF0
:10D49000C0B201EBC2012070A278904200D1267088
:10D4A0000A784868012A2DD1027C5ABB8A684260FA
:10D4B000CA6882600A69C2604969816198F804108B
:10D4C00001B146604268D8F81030DFF85CC0D11A6C
:10D4D00021F07F41614502D28268114406E0991A29
:10D4E000826821F07F418A4202D9511A016000E02E
:10D4F00006604660012186600174C66100F060FA32
:10D50000002DBCD1207861788842BCD17F1EFFB24B
:10D51000B0D2D8F80C10494502D00120BDE8F08700
:10D520000020FBE7A0180020FFFF7F00002386B04B
:10D530001C4A05211846FFF78BFB08B1FFF77CFB5F
:10D54000194818490023006805904822483905A861
:10D5500000F0D6F908B1FFF76FFB00216A460846D4
:10D5600000F0B8F908B1FFF767FB104800F018F9B0
:10D5700008B1FFF761FB684600F0A2F908B1FFF7B8
:10D580005BFBFFF717FB0A4873DF08B1FFF754FB9B
:10D590000220FFF7C5FC00E048DF0028FCD0FFF7C1
:10D5A0004BFBF9E720190020E8DD0100701800208E
:10D5B000E81A002070B5144682880E460546208879
:10D5C000111D0144921C994201D8FE2A01D90C2058
:10D5D00070BD521C32542088FF21401C80B2208034
:10D5E00031542088401C80B220808119288800F0A6
:10D5F0005BFB2188084480B22080AA8842B1A968D8
:10D6000041B13044FEF754FF2088A98808442080A7
:10D61000002070BD072070BDF8B50E460178144695
:10D620000546012901D1687830B12088821C9A42D0
:10D630002DD8012902D006E00720F8BD6978014401
:10D64000891C994223D8181A801E87B2ADF8007041
:10D650002188B01C084469467DDF0028EDD1287878
:10D66000022805D1BDF80010B94201D809210AE00D
:10D670000821012805D16878B84202D8ADF8000029
:10D6800001E0ADF80070BDF80000FE2801D90C20C3
:10D69000F8BD2288401CB0542088401C80B22080F5
:10D6A00031542088401C2080BDF8001008442080A0
:10D6B0000020F8BD800000F5E06000F1A0400268A5
:10D6C00022F440320260026842EA01410160704780
:10D6D000034908B50844002101600068009008BDB6
:10D6E0000060004002494058012800D000207047E7
:10D6F000006000404058002800D001207047D0F85A
:10D700000403084000D0012070474058002800D092
:10D710000120704770B5012670044FF0E02100250C
:10D72000C1F88001084C4010C4F84803C4F808034D
:10D7300066602F20FEF76EFEA660044C2F20256148
:10D74000FEF768FEE57070BD00100140A0180020D3
:10D7500009480A490022C37DC1F8082143B1D1F824
:10D760001815437EC268D154417E491C41767047EA
:10D77000D1F8180570470000C41B002000200040AD
:10D780001FB501228DF8080004488DF80020019192
:10D79000D0E90012684690471FBD0000C41B00205E
:10D7A00008B502490020009108BD00007018002053
:10D7B00010B50121202803DA1D4A8140114004E000
:10D7C000402803DAA0F12002914041B1002809DA93
:10D7D00000F00F0101F1E02191F8141D06E042F282
:10D7E000010010BD00F1E02191F800144909082959
:10D7F00014D299B1012911D004290FD005290DD0D7
:10D800000C4A946800F01F0301219940400944B17B
:10D8100052F820300B4342F8203007E042F2020079
:10D8200010BD800000F1E020C0F80011002010BD04
:10D83000FC06FFBCE41B00202DE9F0410746806A8E
:10D8400014468846C8B3002531E000BFB96A05EB2D
:10D85000450001EB8006B088801CFE2802D90C2010
:10D86000BDE8F0812288401C08F8020020881622BA
:10D87000401C80B2208008F800202088401C80B224
:10D88000208000EB0801308800F00EFA218808445F
:10D8900080B22080B28842B1B16871B14044FEF7D5
:10D8A00007FE2088B188084420806D1CEDB297F8EF
:10D8B0002C00A842CAD80020D2E7FFE70720CFE714
:10D8C0001CB5034901910091694660DF1CBD000051
:10D8D0007018002070B50E460546144614211046F7
:10D8E000FEF7FFFD012020800021216121732672B7
:10D8F000657205B1A072002070BDFFF78BB9000002
:10D9000030B409B18C0702D0072030BC7047074CF7
:10D910000125A16062800649636010DF0028F4D110
:10D92000257030BC1620FFF743BF0000C018002050
:10D93000FBD801002DE9F84F204C00256846D4E9BA
:10D9400003B6FFF7ADFC8046FFF72CFD0746A9465E
:10D95000B8F1000F25D00023009ACC46E06819E00A
:10D9600007680146974202D9BA1A026014E0C1F86A
:10D9700000C0D1F80C80D21BC8693B448A46B8F17C
:10D98000000F07D0F71827F07F47C1E90178CAF8E0
:10D990001C500D460028E3D1E0602846FFF760FDEB
:10D9A00004E02846FFF75CFD00B917B15846FFF7C1
:10D9B000DDFB84F80490BDE8F88F0000A01800207B
:10D9C0000D4B10B5D96831B102680C68A24204D879
:10D9D000A21A0A60C161D86010BD0B4603E00B4675
:10D9E000C969121B21B10C689442F8D3A41A0C60C7
:10D9F0000260C161D86110BDA01800202DE9F0417E
:10DA00001D4DEC68002C35D01C48002700682969A2
:10DA1000B846401A20F07F462068B04215D822460A
:10DA2000361A0744E469107C68B182F810806B698B
:10DA300033B1D2E90501984728B1FFF7FDF802E0BC
:10DA4000D2E905108847002CE6D16978A878814290
:10DA500006D1401CC0B2A870022801D185F802800E
:10DA60000548A978183040F82170BDE8F04114202D
:10DA7000FEF70EBEBDE8F081A0180020041501409D
:10DA8000064A0020C2F81C010548838A8168C95CE7
:10DA9000838A5B1C8382C2F81C15704700200040FB
:10DAA000C41B00201FB500218DF8080005488DF823
:10DAB0000010826801928175D0E900126846904793
:10DAC0001FBD0000C41B00202DE9FF413E4D4FF457
:10DAD00000712846FFF713FE01273C4C4FF40178F4
:10DAE000002600B34FF492712846FFF703FED0B131
:10DAF000C5F82461C5F80883A07E00B96F600220D4
:10DB00008DF80000D5F88004C5F880040390E07D0E
:10DB10008DF80800E0680190E6752676D4E90012D9
:10DB20006846904724E004212846FFF7E8FDF8B155
:10DB30004FF484712846FFF7DDFDC8B1FFF708FEFA
:10DB4000E07D617E884213D1227E3AB1607EE16839
:10DB5000E2752269E2602676667607E0A07E00B96B
:10DB60006F60C5F80883E675607EE168FFF708FE20
:10DB70004FF48E712846FFF7BDFD58B1A18AA07DF4
:10DB8000814202D2FFF77CFF04E0C5F81C6108B1B6
:10DB9000FFF788FF4FF4A2712846FFF7ABFD00287E
:10DBA0000FD0C5F84461A07E00B12F60E07D002851
:10DBB00007D0E675607EE16804B0BDE8F041FFF78C
:10DBC000DFBDBDE8FF81000000200040C41B002035
:10DBD0007FB5334C4FF492712046FFF796FD314DDF
:10DBE0000026B0B1C4F8246102208DF80000D4F8FA
:10DBF0008004C4F880040390D4F83C058DF8080034
:10DC0000E8680190EE752E76D5E9001268469047D7
:10DC10001FE04FF488712046FFF777FDC8B1C4F8C4
:10DC20001061D4F83C05E97DC0B2814211D12A7E51
:10DC30005AB1E968D4F8003223F02003C4F8003266
:10DC4000EA752A69EA602E7601E0EE75E968FFF769
:10DC500097FD4FF4A2712046FFF757FD50B1C4F86D
:10DC60004461E87D30B1EE75D4F83C05E968C0B296
:10DC7000FFF786FD4FF490712046FFF746FD002820
:10DC80000CD0C4F82061A87D002807D0D4F84C053A
:10DC900004B0C0B2BDE87040FFF704BF7FBD000014
:10DCA00000200040C41B00200870000A48700220B9
:10DCB0007047EFF30580C005C00D13D0103840B297
:10DCC000002806DA00F00F0000F1E02090F8140DB3
:10DCD00003E000F1E02090F800044009022803D09E
:10DCE000062803D0022070470020704701207047AB
:10DCF00042788378521CD2B2934200D1002203783A
:10DD0000934201D1002070470A704168407800EBCF
:10DD1000400001EBC00070472DE9FC411646DDE9EB
:10DD20000854CDE900541F468046022200F00CF84A
:10DD3000002807D1CDE900543B4610223146404629
:10DD400000F002F8BDE8FC812DE9FC5F0026DDE96A
:10DD50000C4B994692468E4680462788354630E0E1
:10DD6000D8F80400002200EB8500694600680190A5
:10DD700001A865DF002830D19DF8000050451FD173
:10DD80000EB1002100E002212288084411185945F3
:10DD900022D846B9521C90B2208009F800E02088B1
:10DDA000401C20800126218801A801EB0902694658
:10DDB00065DF002811D120889DF8001008442080DC
:10DDC0006D1CB8F80000A842CADC56B12088C01B00
:10DDD000401E80B2FF2802D90C20BDE8FC9F09F844
:10DDE00007000020F9E7000001000007001B0020E9
:10DDF000201B00204C1B00200D0000000E00000026
:10DE00000F000000100000000D00030079CE01009B
:10DE10000E00030079CE01000F00030079CE01004F
:10DE20001000030079CE010048DE010070180020C8
:10DE30006800000094C90100B0DE0100D81800207D
:10DE400018230000A4C9010002150112233445560D
:10DE50006778899AABBCCDDEEFF001020304C30002
:10DE600000000000000000000000000000000000B2
:10DE700000000000000000000000000000000000A2
:10DE80000000000000000000000000000000000092
:10DE90000000000000000000000000000000000082
:10DEA0000000000000000000000000000090D0030F
:040000050001C40131
:00000001FF
